:1000000091C100000C9403170C942E170C945917EF
:100010000C9484170C94AF170C94DA170C940518F1
:100020000C943018B0C10000AEC10000ACC100009B
:10003000AAC100000C947A1EA6C10000A4C1000051
:10004000A2C10000A0C100009EC100009CC1000030
:100050009AC1000098C1000096C100000C945B1882
:1000600092C100000C94111B0C94471B8CC1000022
:100070008AC1000088C1000086C1000084C1000060
:1000800082C1000080C100007EC100007CC1000070
:100090000C949D1B0C94D31B76C100008EC30000F2
:1000A00072C1000070C100006EC100006CC1000090
:1000B0006AC1000068C1000066C1000064C10000A0
:1000C00062C1000060C100000C94FD1E0C94291C4C
:1000D0000C945F1C58C100000C94B51C0C94EB1CD4
:1000E00052C100008C198F197E1982198819C619FE
:1000F000931997199D19A119A519AB19AF19B3191E
:10010000C619B919BD19C1190627C4282E293129C4
:1001100008283B28C526E626A9260B29FA28072900
:10012000312931293129942600000A0B02090C0DCE
:100130000E0807030401000000000000000000009A
:1001400000000000000000000000000000000000AF
:10015000000000001211100000000000000000006C
:10016000000000000000000000000000000001028C
:1001700010202008081020401020408002010201B9
:100180000804020101020408102040808040201071
:1001900008040201800402018040201008040201CA
:1001A0000804020101020408102040800102040832
:1001B000102040800505050507050808080802020B
:1001C00002020A0A080804040404010101010101F1
:1001D00001010303030303030303040707070C0CD4
:1001E0000C0C0C0C0C0C020202020606060606069B
:1001F00006060B0B0B0B0B0B0B0B00002200250054
:1002000028002B002E0031003400020100000501FF
:1002100008010B0102001D3A2774694E53E8F5D21C
:10022000CF9C81A6BBCDD0F7EAB9A4839E25381F09
:1002300002514C6B76879ABDA0F3EEC9D46F72550C
:10024000481B06213C4A57706D3E230419A2BF98F3
:1002500085D6CBECF1130E2934677A5D40FBE6C1FD
:10026000DC8F92B5A8DEC3E4F9AAB7908D362B0CCB
:1002700011425F78659489AEB3E0FDDAC77C6146D0
:100280005B0815322F5944637E2D30170AB1AC8BB1
:1002900096C5D8FFE2263B1C01524F6875CED3F4B9
:1002A000E9BAA7809DEBF6D1CC9F82A5B8031E3991
:1002B00024776A4D50A1BC9B86D5C8EFF249547390
:1002C0006E3D20071A6C71564B1805223F8499BE6B
:1002D000A3F0EDCAD735280F12415C7B66DDC0E77D
:1002E000FAA9B4938EF8E5C2DF8C91B6AB100D2A53
:1002F0003764795E43B2AF8895C6DBFCE15A47604C
:100300007D2E3314097F6245580B16312C978AAD28
:10031000B0E3FED9C400E602C407701BFC1B881CB6
:10032000141D801D11241FBECFEFD1E2DEBFCDBF53
:1003300000E00CBF13E0A0E0B2E0E6EEFCE500E078
:100340000BBF02C007900D92A03BB107D9F728E080
:10035000A0EBB3E001C01D92A333B207E1F711E0B7
:10036000C2E9D1E000E006C021970109802FFE011B
:100370000E94F52CCB38D10780E00807A9F70E942E
:10038000BB2A0C94712E3CCE8091E00390E020912A
:10039000E103821B910908959091E1038091E003AC
:1003A000981750F4E92FF0E0EE51FC4F208130E037
:1003B0009F5F9093E10302C02FEF3FEFC9010895C3
:1003C000E091E1038091E003E81730F4F0E0EE51B2
:1003D000FC4F808190E008958FEF9FEF089508957E
:1003E000CF92DF92EF92FF920F931F93CF93DF9301
:1003F0007C01262F972F8A018091BC03882391F0DE
:10040000C62FD72F6E01C40ED51ECC15DD0569F0A1
:100410006991D701ED91FC910190F081E02DC70128
:100420001995F3CF642F822F90D1C801DF91CF911E
:100430001F910F91FF90EF90DF90CF900895CF9391
:10044000DF931F92CDB7DEB769832091BC032223CF
:10045000D1F02091BD03203240F021E030E0FC01DA
:100460003383228380E090E014C08091BE03E82FA4
:10047000F0E0E154FC4F998190838F5F8093BE033D
:100480008093BD0304C061E0CE0101965ED181E09E
:1004900090E00F90DF91CF910895FC0113821282BA
:1004A00088EE93E0A0E0B0E084839583A683B783D1
:1004B00089E892E09183808308951092E10310927D
:1004C000E0031092BE031092BD0383C081E08093CD
:1004D000BC036093DF031092BE031092BD03089526
:1004E0000F93062F21E04091BD036FEB73E08091E5
:1004F000DF03D5D01092BE031092BD031092BC034F
:100500000F9108954F925F926F927F92AF92BF9238
:10051000CF92EF92FF920F931F93CF93DF935C01E3
:10052000F62ED42F28013901EE2011F1CFDFCE2D88
:10053000C43008F0C3E0C150C0F0D501ED91FC918A
:10054000B8E0CB9FC0011124A301920104C05695CD
:100550004795379527958A95D2F7CA01B901019039
:10056000F081E02DC5011995E6CF60E0C501B8DF47
:100570004D2FD13208F040E22C2D62EE73E08F2D2A
:1005800046D01092E1038093E003DF91CF911F9159
:100590000F91FF90EF90CF90BF90AF907F906F90B2
:1005A0005F904F900895CF92EF920F931F93C22EBA
:1005B000E12C00E010E09801A5DF1F910F91EF9072
:1005C000CF90089521E0EFCF61E08ACF80EB93E0F8
:1005D00064CF10926F0481E080936D0410926C04DC
:1005E00061E084E10E94C71961E085E10E94C719BA
:1005F000E9EBF0E080818E7F808380818D7F808336
:1006000088E48093B80085E48093BC00089541326B
:1006100008F043C090916F049111FCCF91E090934A
:100620006F0420936D042FEF20930204109247046F
:10063000240F2093460490936E0490916E04880FCB
:10064000892B80936E0480916C04813061F4109248
:100650006C0480916E048093BB008091BC0083FD8C
:10066000F8CF85EC01C085EE8093BC0080916F04CB
:100670008130E1F380914704841710F440914704DE
:1006800028E434E0FB01D9018A2F821B841718F477
:100690008D918193F9CF842F089580E008950F9371
:1006A000413208F04AC090916F049111FCCF32E0C2
:1006B00030936F0400936D043FEF30930204109267
:1006C000470440934604FB0168E474E0DB013A2FE1
:1006D000361B341718F431913D93F9CF10926E0404
:1006E00030916E04880F832B80936E0480916C048C
:1006F000813061F410926C0480916E048093BB0091
:100700008091BC0083FDF8CF85EC01C085EE80931D
:10071000BC00222321F080916F048230D1F38091BC
:1007200002048F3F79F080910204803241F0809181
:100730000204803331F094E005C091E003C092E000
:1007400001C093E0892F0F91089540912404262F32
:1007500030E0240F311D21323105DCF420916F048B
:100760002430C9F4FC0180E090E0861758F4309101
:1007700024042191DC01AA5DBB4FA30FB11D2C9372
:100780000196F3CF80912404680F6093240480E0E5
:10079000089581E0089582E0089585ED8093BC007E
:1007A0008091BC0084FDFCCF10926F04089585EC0D
:1007B0008093BC0010926F0408951F920F920FB6A1
:1007C0000F9211240BB60F922F933F934F935F9389
:1007D0006F937F938F939F93AF93BF93EF93FF9309
:1007E0008091B900887F803609F49DC070F5883209
:1007F00009F45CC090F4803109F455C038F48823C2
:1008000009F4F3C0883009F44EC0F2C0883109F40D
:100810004DC0803209F45EC0EBC0803409F469C079
:1008200050F4803309F456C0883309F0E1C0809356
:100830000204BDDFDDC0803509F44FC0883509F4FE
:100840005DC0883409F0D4C0D2C0883909F4C3C06F
:10085000A8F4883709F467C038F4883609F463C00F
:10086000803709F460C0C4C0883809F4B4C0803946
:1008700009F45FC0803809F0BBC05BC0803B09F45D
:1008800082C038F4803A09F466C0883A09F47BC023
:10089000AFC0803C09F4A3C0883C09F4A0C0883BE9
:1008A00009F486C0A5C080916E0410C090914704E1
:1008B00080914604981770F5E091470481E08E0F0F
:1008C00080934704F0E0E85BFB4F80818093BB009E
:1008D00085EC82C0809302048AC0E091470481E0E5
:1008E0008E0F809347048091BB00F0E0E85BFB4FE4
:1008F000808390914704809146046AC0E091470448
:1009000081E08E0F809347048091BB00F0E0E85BAC
:10091000FB4F808380916D04811169C081E08093D9
:100920006C0484EA5DC083E080936F04109203043A
:10093000CFCF80910304803208F04DC0E0910304D2
:1009400081E08E0F809303048091BB00F0E0EC5FA8
:10095000FB4F8083BDCF2BDF80910304803230F4C6
:10096000E0910304F0E0EC5FFB4F10826091030420
:1009700070E0E0916804F091690484E094E01995D6
:100980001092030435C084E080936F041092250414
:1009900010922404E0916A04F0916B0419958091FF
:1009A0002404811105C081E0809324041092260460
:1009B000E091250481E08E0F80932504F0E0EA5D4C
:1009C000FB4F80818093BB0090912504809124048B
:1009D000981708F47DCF85E88093BC0009C085ECAA
:1009E0008093BC0010926F0403C010920204D5DE05
:1009F000FF91EF91BF91AF919F918F917F916F91F7
:100A00005F914F913F912F910F900BBE0F900FBEB2
:100A10000F901F901895EF92FF920F931F93CF9313
:100A2000DF931F921F92CDB7DEB7062F142F682FCA
:100A300080EB93E029833A8349DD602F80EB93E0DC
:100A4000FEDC2981022FE22E3A81F32E8E2D801BAF
:100A5000811738F4F70161917F0180EB93E0EFDCBF
:100A6000F5CF80EB93E0B0DD91E0811190E0892F2C
:100A70000F900F90DF91CF911F910F91FF90EF900A
:100A80000895CF93DF931F92CDB7DEB749839E01C0
:100A90002F5F3F4F41E0BFDF0F90DF91CF9108956F
:100AA0002F923F924F925F926F927F928F929F927E
:100AB000AF92BF92CF92DF92EF92FF920F931F936C
:100AC000CF93DF9300D01F921F92CDB7DEB7F82EE1
:100AD000E62E242E69010E94A5184B015C01312CE1
:100AE0001D82822D90E09C838B832801612C712CC8
:100AF000321408F04DC06F2D80EB93E0E7DC6E2DD3
:100B000080EB93E09CDC80EB93E05EDD6F2D80EB6F
:100B100093E0DCDC4B815C81431951094132510582
:100B200014F040E250E06F2D80EB93E04BDD80EB62
:100B300093E02ADC892B11F10115110591F4F601DE
:100B40002D81E20FF11D27FDFA95FA83E98380EBF1
:100B500093E022DCE981FA8180832D812F5F2D8350
:100B6000E6CF0E94A518DC01CB0188199909AA09D2
:100B7000BB0984159505A605B70508F380EB93E03E
:100B800023DD822D40E2421508F480E2380EB0CF1A
:100B900001151105D1F00E94A518DC01CB018819BF
:100BA0009909AA09BB0920E030E080179107A20744
:100BB000B30758F0822D90E0ED812E2FEE0F330B0E
:100BC0002817390714F42FEF2D838D810F900F9084
:100BD0000F900F900F90DF91CF911F910F91FF9089
:100BE000EF90DF90CF90BF90AF909F908F907F90CD
:100BF0006F905F904F903F902F9008950F931F93A9
:100C000089019A0141E04CDF1F910F910895EF9205
:100C1000FF920F931F93CF93DF931F92CDB7DEB751
:100C2000182F062FF42EE22E20910A0230910B028B
:100C3000AE014F5F5F4FE2DF9981EE2041F041E06E
:100C400050E001C0440FFA94EAF7492B09C021E0B3
:100C500030E0A90101C0440FFA94EAF74095492316
:100C60004983602F812F0DDF0F90DF91CF911F916E
:100C70000F91FF90EF900895DF92EF92FF920F9304
:100C80001F93CF93DF931F92CDB7DEB7182FF62EA9
:100C9000E42ED22E20910A0230910B02AE014F5F5A
:100CA0005F4FACDF882319F1EE2DF0E0ED19F1096B
:100CB000319621E030E002C0220F331FDA94E2F7D0
:100CC000215031090E2E01C0220F0A94EAF7802F1D
:100CD00001C0880FEA95EAF7422F40959981492390
:100CE0002823422B49836F2D812FCBDE01C080E06A
:100CF0000F90DF91CF911F910F91FF90EF90DF90B8
:100D0000089528E6FC01208308950F93062F23E021
:100D100042E06AE1FC018081AFDF0F9108950F93FB
:100D2000062F22E044E06BE1FC018081A5DF0F91FA
:100D300008950F93062F22E044E06CE1FC018081CE
:100D40009BDF0F9108950F931F93CF93DF93EC01D7
:100D500000910A0210910B029C012F5F3F4F42E06D
:100D60006BE388819DDE298130E0322F22278A8142
:100D7000A901482BCA01DF91CF911F910F910895CE
:100D80000F931F93CF93DF93EC0100910A02109110
:100D90000B029C012F5F3F4F42E06DE3888180DEB4
:100DA000298130E0322F22278A81A901482BCA01EC
:100DB000DF91CF911F910F9108950F931F93CF93C0
:100DC000DF93EC0100910A0210910B029C012F5F4E
:100DD0003F4F42E06FE3888163DE298130E0322FAC
:100DE00022278A81A901482BCA01DF91CF911F9147
:100DF0000F9108950F931F93CF93DF93EC01009110
:100E00000A0210910B029C012F5F3F4F42E063E406
:100E1000888146DE298130E0322F22278A81A9018C
:100E2000482BCA01DF91CF911F910F9108950F9325
:100E30001F93CF93DF93EC0100910A0210910B02F4
:100E40009C012F5F3F4F42E065E4888129DE2981C4
:100E500030E0322F22278A81A901482BCA01DF9175
:100E6000CF911F910F9108950F931F93CF93DF930D
:100E7000EC0100910A0210910B029C012F5F3F4F81
:100E800042E067E488810CDE298130E0322F22279E
:100E90008A81A901482BCA01DF91CF911F910F913F
:100EA0000895262F46E06BE6FC018081B0CE0F93BB
:100EB000062F23E042E06BE6FC018081DDDE0F912E
:100EC0000895CF93DF93EC0161E0F1DF60E0CE01A4
:100ED00026DF60E0CE012DDF60E0CE01DF91CF9113
:100EE000E0CF80EB93E0E9DA80E794E0EADF20E00E
:100EF00045E06AE688E68BDE21E041E067E388E6CC
:100F000086DE20E046E06BE688E681CECF93DF9375
:100F1000EC0180E794E017DF9983888380E794E011
:100F20002FDF9B838A8380E794E047DF9D838C8358
:100F3000DF91CF910895CF93DF931F92CDB7DEB7A6
:100F4000682F80EB93E06983B8DA698180E794E0E9
:100F5000DCDE80E794E00F90DF91CF91B2CFCF93AA
:100F6000DF93EC0180E794E045DF9983888380E795
:100F700094E05DDF9B838A8380E794E075DF9D8347
:100F80008C83DF91CF91089580E794E0BACE8F9261
:100F90009F92AF92BF92CF92DF92EF92FF92CF9348
:100FA000DF9300D000D0CDB7DEB7CE010196D7DFFA
:100FB00089819A8190932408809323088B819C8156
:100FC00090932608809325088D819E819093280810
:100FD00080932708CE01019699DF89819A819093A9
:100FE0002A08809329088B819C8190932C088093F8
:100FF0002B088D819E8190932E0880932D0881E08F
:1010000090E00E94AF164091FC075091FD0760915F
:10101000FE077091FF0780E090E00E94AB16809081
:10102000060890900708A0900808B090090820E0F2
:1010300030E040E85FEBC501B4010E94A32B882398
:1010400031F1C090FC07D090FD07E090FE07F090D2
:10105000FF07A7019601C501B4010E943E2B4B0179
:101060005C0120E030E040E054E3C701B6010E949B
:101070005D2C9B01AC01C501B4010E94592C1816CE
:1010800034F085E992E09093E7078093E60780913A
:101090000A08882331F085E992E09093E70780936E
:1010A000E60760910008709101086F5F7F4F7093B1
:1010B00001086093000880E090E00E94A72B209137
:1010C00002083091030840910408509105080E94DD
:1010D0005D2C6093FC077093FD078093FE0790934F
:1010E000FF0726960FB6F894DEBF0FBECDBFDF9187
:1010F000CF91FF90EF90DF90CF90BF90AF909F90F7
:101100008F900895CF92DF92EF92FF920F931F93EB
:10111000CF93DF93E6EEF7E085E2DF011D928A953B
:10112000E9F780E090E0A8ECB2E480A391A3A2A349
:10113000B3A380E090E0A0E0B0E4848F958FA68F09
:10114000B78F82E19CEEA2ECB2E784839583A683FD
:10115000B7838DE090EBADE3B2EA80879187A287F9
:10116000B38781E69DE5A0E7BDEA84879587A687DA
:10117000B7878CE79AE2A5EFB7EA808B918BA28BB9
:10118000B38BA7E9B4E0B383A283C1E9D4E011969D
:10119000DC93CE938CE493E0998388839B838A834A
:1011A0009D838C838AEF97E015969C938E9314977A
:1011B0008AEE97E013969C938E9312978CEF97E0AC
:1011C00017969C938E9316978CE0A3E2B8E0ED01FE
:1011D00019928A95E9F70BE018E088E1D8011D9291
:1011E0008A95E9F7AFE7B4E082E1ED0119928A95BB
:1011F000E9F7B58BA48B80E190E011969C938E93D8
:1012000080E592E013969C938E93129780E392E090
:1012100015969C938E9314978CE092E017969C936E
:101220008E931697C12CD12C7601C394F801C48AF1
:10123000D58AE68AF78A80E090E07DDED801509674
:10124000CD92DD92ED92FC925397DF91CF911F9159
:101250000F91FF90EF90DF90CF9043CE80911F08C9
:1012600090912008A0912108B09122080197A10532
:10127000B10561F482E090E0A0E0B0E080931F0847
:1012800090932008A0932108B093220880911B0816
:1012900090911C08A0911D08B0911E080197A1050E
:1012A000B10561F482E090E0A0E0B0E080931B081B
:1012B00090931C08A0931D08B0931E080895EF9208
:1012C000FF920F931F93CF93DF93DC01EA01F901A3
:1012D00014968D919C91159712960D911C911397D0
:1012E000080F191F2881398118964D915C91199723
:1012F0004217530728F04D915C911197452B39F116
:101300007801E21AF30A18964D915C911997481BDF
:10131000590B4E0D5F1D4617570794F1A901460F53
:10132000571F40175107E0F0F182E0823383228398
:101330006E197F0975836483161617061CF4382FFF
:10134000292F02C030E020E03683278313C018968F
:101350008D919C911997821B930B8617970784F0A8
:1013600071836083338322831582148217821682ED
:1013700088819981680F791F7983688380E001C033
:1013800081E0DF91CF911F910F91FF90EF90089531
:10139000CF92DF92EF92FF92CF93DF936B017C01AC
:1013A00084E48C9DE0018D9DD00D1124CD55DB4F43
:1013B0008AA99BA9009721F00E94C02D1BAA1AAAF6
:1013C00084E48C9DF0018D9DF00D1124ED55FB4FB3
:1013D00086A997A9009711F00E94C02D84E48C9DE6
:1013E000F0018D9DF00D1124ED55FB4F138A128AEB
:1013F000168A178A108E118E128E138E148E158EE9
:10140000168E178E10A211A281E090E093A382A302
:1014100015A214A216A217A210A611A613A612A610
:1014200015A614A616A617A610AA11AA13AA12AAE0
:1014300015AA14AA17AA16AA11AE10AE12AE13AEB0
:1014400014AE15AEDF01DE961D921D921D921C9208
:101450001397EE5BFF4F11821082DF91CF91FF90C7
:10146000EF90DF90CF9008950F931F93CF93DF936A
:10147000EB01DC018D919C91FC01A681B781E88193
:10148000F98123E0EE0FFF1F2A95E1F712962D91C7
:101490003C911397E20FF31F00811181AC85BD854C
:1014A0009D01220F331FDC0112968D919C911397A1
:1014B000D901A80FB91F8D919C9124813581232BCF
:1014C00019F461E070E002C062E070E0689F900192
:1014D000699F300D789F300D112488859985289F4C
:1014E000B001299F700D389F700D1124EC81FD8192
:1014F0002E9FC0012F9F900D3E9F900D1124800FB5
:10150000911FFA019183808373836283DF91CF916E
:101510001F910F9108952F923F924F925F926F9279
:101520007F928F929F92AF92BF92CF92DF92EF9273
:10153000FF920F931F93CF93DF9300D000D0CDB7CE
:10154000DEB7DC011496ED91FC9115970190F081C6
:10155000E02D808591859A838983A281B381BC83A4
:10156000AB83FB0181909190A190B1908F01C12C30
:10157000D12C7601C814D904EA04FB040CF05FC036
:10158000D80114964D905D906D907C9017971896A9
:101590004D915D916D917C911B97F8017096FE8342
:1015A000ED83F801A081B18183E0AA0FBB1F8A956A
:1015B000E1F7E981FA8182819381A80FB91F2D900B
:1015C0003C901197F80124853585220F331F8B81BC
:1015D0009C81280F391FF9010081118114968D918A
:1015E0009C911597892B19F481E090E002C082E06C
:1015F00090E0809F9001819F300D909F300D1124CD
:10160000249F8001259F100D349F100D1124249DCF
:10161000C001259D900D349D900D1124A8016D8170
:101620007E81820D931D0E94582E8D819E81080F10
:10163000191F9FEFC91AD90AE90AF90A9BCF269602
:101640000FB6F894DEBF0FBECDBFDF91CF911F91D3
:101650000F91FF90EF90DF90CF90BF90AF909F9051
:101660008F907F906F905F904F903F902F90089554
:10167000CF93DF93DB01A059BD4F2C91222369F05A
:1016800024E4269FF001279FF00D1124ED55FB4F18
:10169000EF0119922A95E9F71C9224E4269FF001A4
:1016A000279FF00D1124ED55FB4F148215821682F1
:1016B00017821186108613861286118A108A178661
:1016C0001686DF91CF9164CE2F923F924F925F9218
:1016D0006F927F928F929F92AF92BF92CF92DF9242
:1016E000EF92FF920F931F93CF93DF93CDB7DEB7A7
:1016F00028970FB6F894DEBF0FBECDBF6B017C01FB
:101700001A0184E48C9D90018D9D300D11242D557E
:101710003B4FF90184819581A681B781892B8A2B62
:101720008B2B09F4B8C0A12CB12C412C512C3201C7
:1017300038872F83C90104969A838983D901189623
:10174000BC83AB83E981FA8180819181A281B381DD
:10175000481659066A067B0694F5AB81BC81ED916B
:10176000FC91EA0DFB1D228133818901812C912C92
:1017700082149304C4F4D801ED91FC91309769F080
:10178000848195812D833E830E94C02DF801808144
:1017900091810E94C02D3E812D81FFEF8F1A9F0AFB
:1017A0000E5F1F4FE5CFC9010E94C02D8FEF481A71
:1017B000580A680A780A94E0A90EB11CC3CFAF8119
:1017C000B88518968D919C9119970E94C02DEF8134
:1017D000F88582859385892B59F1A12CB12C812C18
:1017E000912C84E48C9D80018D9D100D1124035556
:1017F0001B4F8214930484F4D801ED91FC91EA0DFF
:10180000FB1D848195810E94C02DBFEF8B1A9B0A1E
:10181000EEE0AE0EB11CEDCF84E48C9DF0018D9D09
:10182000F00D1124ED55FB4F828593850E94C02D4C
:1018300084E48C9D90018D9D300D112489010D55FE
:101840001B4FD80150968D919C9151970E94C02DAD
:10185000F801868597850E94C02DC701B60198DDE5
:10186000C701B60128960FB6F894DEBF0FBECDBFF4
:10187000DF91CF911F910F91FF90EF90DF90CF906C
:10188000BF90AF909F908F907F906F905F904F90A0
:101890003F902F90EDCE28960FB6F894DEBF0FBE86
:1018A000CDBFDF91CF911F910F91FF90EF90DF900F
:1018B000CF90BF90AF909F908F907F906F905F90F0
:1018C0004F903F902F90089524E4269FF001279F8A
:1018D000F00D1124ED55FB4F8289938904970297EF
:1018E00058F485E090E0938B828B8FEF9FEFDC01C3
:1018F000828F938FA48FB58F08952F923F924F922E
:101900005F926F927F928F929F92AF92BF92CF928F
:10191000DF92EF92FF920F931F93CF93DF93CDB798
:10192000DEB7E0970FB6F894DEBF0FBECDBF9AA327
:1019300089A31B016A012801390184E4849D800187
:10194000859D100D112498012D553B4F7901D9012A
:101950004D925D926D927C921397AB01C301B201DF
:10196000B3DEF801E955FB4FD6014D915D916D91C4
:101970007D918D01CA01408351836283738364E04A
:1019800070E00E94112DF70191878087892B09F45F
:1019900099C11E8E1D8E198E1A8E1B8E1C8EF8A25A
:1019A000EF8E97012C5F3F4F38A72FA32C5F3F4F3F
:1019B0003AA729A7EFA1F8A580819181A281B381DF
:1019C000298D3A8D4B8D5C8D281739074A075B07A7
:1019D0000CF0E4C0A9A5BAA58D919C912D8D3E8DEA
:1019E000280F391F3A8B298BD801ED91FC91EE0F0E
:1019F000FF1FA9A1BAA18D919C91E80FF91F8081C9
:101A00009181F90191838083D80114962D913D91A4
:101A10004D915C9117972BA33CA34DA35EA3085F48
:101A20001F4F62E070E0C1010E94112DE989FA891F
:101A300093838283892B09F445C11D8A1E8A1F8ADC
:101A4000188E2D893E894F89588D8BA19CA1ADA1FF
:101A5000BEA1281739074A075B070CF08CC0D801D4
:101A6000ED90FC90EE0CFF1CE989FA89C280D380CE
:101A7000CE0CDF1C68E070E081E090E00E94112D48
:101A8000D6018D939C93E989FA8982819381FC0127
:101A9000EE0DFF1DC080D180C114D10409F412C124
:101AA000D80114964D915D916D917C911797CA0163
:101AB000F6014083518362837383085F1F4F64E0A4
:101AC00070E00E94112DD60115969C938E93149769
:101AD000892B09F4F7C01C8A1B8A812C912C540194
:101AE000F60180819181A281B38188169906AA06A8
:101AF000BB06A4F5F601E480F5802B893C89E20E53
:101B0000F31EF801DE01119680E101900D928A9595
:101B1000E1F7005F1F4FA701BE016F5F7F4FA9A1D3
:101B2000BAA114968D919C9115979EDCF6012681A1
:101B30003781D70112968D919C911397820F931F35
:101B400097838683BFEF8B1A9B0AAB0ABB0A2B894C
:101B50003C892C5F3F4F3C8B2B8BC2CF2D893E891C
:101B60004F89588D2F5F3F4F4F4F5F4F2D8B3E8BCF
:101B70004F8B588F66CF298D3A8D4B8D5C8D2F5FA3
:101B80003F4F4F4F5F4F298F3A8F4B8F5C8F2D8D7B
:101B90003E8D2C5F3F4F3E8F2D8F0CCF6EE070E05F
:101BA000C1010E94112DAF8DB8A11B969C938E93FD
:101BB0001A97812C912CA12CB12CC12CD12C24E46E
:101BC000249DC001259D900D11249C0123553B4F60
:101BD0003A8B298B21E030E0A214B3040CF04AC008
:101BE000D8014D915D916D917D918D01CA01E98979
:101BF000FA89E080F180E80CF91C57FD63C0D70139
:101C000011963C932E930097A1F02FA738AB4BA7CA
:101C10005CA76DA77EA70E942B2DF7019583848377
:101C20002FA538A94BA55CA56DA57EA5892B31F400
:101C300049C0D70115961C921E921497F701538341
:101C400042838481958197838683918780871386D9
:101C5000128681E090E0452B462B472B11F480E063
:101C600090E0C80ED91EFFEFAF1ABF0A4EE0840EF7
:101C7000911CB2CF84E4849D8001859D100D1124B8
:101C80000D551B4FD8011D961C921E921C97C60124
:101C900033E0880F991F3A95E1F70E942B2DF80148
:101CA000918B808B892B71F0C601880F991F0E9440
:101CB0002B2DD8011F969C938E931E97892B11F084
:101CC00080E005C0A101C301B201FEDC81E0E09625
:101CD0000FB6F894DEBF0FBECDBFDF91CF911F913D
:101CE0000F91FF90EF90DF90CF90BF90AF909F90BB
:101CF0008F907F906F905F904F903F902F900895BE
:101D00002F923F924F925F926F927F928F929F920B
:101D1000AF92BF92CF92DF92EF92FF920F931F93F9
:101D2000CF93DF93CDB7DEB768970FB6F894DEBFD9
:101D30000FBECDBF9C8B8B8BDB0149015A0124E484
:101D4000289DC001299D900D11249C012D553B4FCC
:101D500079012D913C911197F701358B248BFC0172
:101D6000E754FB4F14964D915D916D917C911797BF
:101D70004083518362837383FC01E354FB4F1896C5
:101D80004D915D916D917C911B974083518362834E
:101D90007383FC01EF53FB4F1C964D915D916D9148
:101DA0007C911F974083518362837383FC01EF52C0
:101DB000FB4F50965C91509751964C91519752968B
:101DC0003C91529753962C91539750834183328381
:101DD00023838D010C5E1F4F852F942F1816190633
:101DE0000CF068C0880F991F880F991F0E942B2D37
:101DF000D701D3969C938E93D297892B09F4BCC0BC
:101E0000212C312C412C512C32019701225D3F4F66
:101E10003E8B2D8B2C5F3F4F388F2F8B2E5F3F4F8C
:101E20003A8B298BB301A2012FEF421A520A620AA0
:101E3000720AED89FE8980819181A281B381481760
:101E400059076A077B074CF5AF89B88DCD90DC90B8
:101E5000C20CD31CF801DE01119680E101900D92B5
:101E60008A95E1F7005F1F4FA601BE016F5F7F4FAC
:101E7000EB89FC8984819581F7DAA989BA898D91EA
:101E80009C911197F60122813381820F931F8D93CC
:101E90009C93F4E02F0E311CC5CFD701D4968D91C1
:101EA0009C91D5970E942B2DF70197AB86AB892B80
:101EB00009F462C0F80180819181A281B38124E498
:101EC000289DF001299DF00D1124ED55FB4FAC012B
:101ED000BD014D7F21E030E0452B462B472B11F013
:101EE00020E030E033A322A324E4289DF001299DC3
:101EF000F00D1124ED55FB4F0197A109B10921E027
:101F000030E00297A105B10510F020E030E035A3E4
:101F100024A384E4889DF001899DF00D1124CF0154
:101F200087539B4FD80114964D915D916D917C9193
:101F30001797DC014D935D936D937C931397ED554B
:101F4000FB4F868D978DA0A1B1A1B7FF10C0B095B2
:101F5000A095909581959F4FAF4FBF4F82AF93AFA4
:101F6000A4AFB5AF168E178E10A211A20AC012AE82
:101F700013AE14AE15AE05C0C501B40109DA81E097
:101F800001C080E068960FB6F894DEBF0FBECDBFEB
:101F9000DF91CF911F910F91FF90EF90DF90CF9045
:101FA000BF90AF909F908F907F906F905F904F9079
:101FB0003F902F900895CF92DF92EF92FF92CF93B0
:101FC000DF9310922B0524E4269FF001279FF00D4C
:101FD0001124ED55FB4F15A614A620E030E0C12CCE
:101FE000D12CDF011A96C1E0D0E0C416D506D4F496
:101FF000ED91FC911197E20FF31FE280F3801E1424
:102000001F0454F4E480F580F782E682F186E086CE
:1020100013861286D183C083EFEFCE1ADE0A225FC9
:102020003F4FE3CF24E4269FF001279FF00D1124BA
:10203000ED55FB4F13A612A611AE10AEDF01DE96D2
:102040001D921D921D921C92139782E090E0938B3B
:10205000828BDF91CF91FF90EF90DF90CF9008952A
:1020600024E4269FF001279FF00D1124ED55FB4F2E
:10207000138A128A29CB24E4269FF001279FF00DB2
:102080001124ED55FB4F8289938981309105C8F069
:102090008530910518F0059769F008958FEF9FEF4F
:1020A000DC01828F938FA48FB58F85E090E0938BB6
:1020B000828B08958FEF9FEFDC01828F938FA48F27
:1020C000B58F089524E4249FF001259FF00D11247D
:1020D000ED55FB4F2EE0AC01249FC001259F900DD4
:1020E00011240284F385E02DE80FF91F81E080932D
:1020F0002B05828593859187808740855185268130
:10210000378181E090E04217530711F080E090E0C2
:102110009183808308952F923F924F925F926F92A6
:102120007F928F929F92AF92BF92CF92DF92EF9267
:10213000FF920F931F93CF93DF93CDB7DEB7C255B6
:10214000D1090FB6F894DEBF0FBECDBF21969FAF69
:102150008EAF21974BA75CA76DA77EA748015901B9
:1021600084E4889D8001899D100D1124F801ED55AE
:10217000FB4F2285338527963FAF2EAF2797828965
:102180009389029709F060C186A597A5A0A9B1A976
:10219000892B8A2B8B2B29F484E090E0938B828B04
:1021A00053C18489958921964EAD5FAD219748171B
:1021B000590709F049C186A997A99AAB89AB1EAE08
:1021C0001DAE19AE1AAE1BAE1CAE8F01DF019E967E
:1021D0002996BFAFAEAF2997F2962B96FFAFEEAF21
:1021E0002B979801285C3F4F2D963FAF2EAF2D9730
:1021F000A8014A5D5F4F2F965FAF4EAF2F97C80182
:10220000829661969FAF8EAF61971A976396BFAF24
:10221000AEAF63972996EEADFFAD2997808191818E
:10222000A281B38129AD3AAD4BAD5CAD281739071A
:102230004A075B070CF0E7C02B96EEADFFAD2B977E
:10224000808191812DAD3EAD280F391F3EAB2DAB66
:10225000D90112960D90BC91A02D2396BFAFAEAFC1
:102260002397B695A795B695A7952596BFAFAEAF20
:1022700025972D96EEADFFAD2D9780819181892B0D
:1022800009F496C02F96AEADBFAD2F97CD90DD90DF
:10229000ED90FC9029A83AA8F9010190F081E02D79
:1022A000F8ABEFA718AE1FAA8FA998AD2596AEADD3
:1022B000BFAD25978A179B070CF07AC06196AEAD2B
:1022C000BFAD61978D919C91892B69F1EFA5F8A91C
:1022D0004080518062807380A7019601C301B201E2
:1022E0000E94592C87FD0BC0A7019601D1016D9169
:1022F0007D918D919C910E94A32B87FD8CC0A7019D
:102300009601C301B2010E94592C181664F4A7016A
:102310009601F10160817181828193810E94A32BDA
:10232000882309F478C06396AEADBFAD63978D91F5
:102330009C91892B69F1EFA5F8A9408051806280BA
:102340007380A7019601C301B2010E94A32B87FFEE
:102350000BC0A7019601D1016D917D918D919C914A
:102360000E94592C87FF57C0A7019601C301B201F3
:102370000E94A32B81110CC0A7019601F10160817D
:102380007181828193810E94592C18160CF443C0EC
:102390002FA938AD2F5F3F4F38AF2FAB34E0230E5E
:1023A000311C4FA558A94C5F5F4F58AB4FA77CCF4E
:1023B000EDA9FEA96081718123964EAD5FAD239793
:1023C00089A99AA90E94582E25968EAD9FAD259772
:1023D000880F991F880F991F29A93AA9280F391F1B
:1023E0003AAB29AB89AD9AADABADBCAD0196A11DA1
:1023F000B11D89AF9AAFABAFBCAFADADBEAD14965A
:10240000BEAFADAF07CF81E090E0D801D9969C93E5
:102410008E93D89719C084E4889DF001899DF00DB2
:102420001124ED55FB4F868D978DA0A1B1A1892B6D
:102430008A2B8B2B09F064C284E090E0938B828B13
:1024400086AD97AD93A782A784E4889DF001899D0E
:10245000F00D1124ED55FB4F82899389823091054F
:1024600071F482AD93ADA4ADB5AD181619061A0678
:102470001B060CF04CC2CC24C394D12C05C004978D
:1024800009F045C2C12CD12C8EE02196EEADFFADF6
:1024900021978E9F70018F9FF00C112427962EADEF
:1024A0003FAD2797E20EF31ED70112964D915C9136
:1024B00013974115510509F42AC216968D919C91E6
:1024C00017979AA789A7FE01319684E1DF011D9233
:1024D0008A95E9F7898A9A8AAB8ABC8AC114D104A1
:1024E00009F457C084E4889DF001899DF00D112402
:1024F000ED55FB4FDF01DE964D905D906D907C9029
:1025000082AD93ADA4ADB5AD481659066A067B06FB
:1025100009F03FC0F701648175810084F185E02DE9
:1025200084819581A681B7819C018D8B9E8BAF8B19
:10253000B88F285F3F4F3E8B2D8BD70118968D911A
:102540009C911997280F391F19963C932E93189731
:1025500018968D919C911997460F571F841B950BC8
:1025600097FD06C0860F971F19969C938E93189718
:1025700084E4889DF001899DF00D1124EF51FB4FFB
:10258000B1E04B1A510861087108408251826282A1
:1025900073829E012B5E3F4FAE01475D5F4F64E14A
:1025A00070E0C7010E945F09082F10E001151105B6
:1025B00009F091C18CE090E0A0E0B0E08D839E83B3
:1025C000AF83B8879E01235E3F4FAE01475D5F4FEB
:1025D00064E070E0C7010E945F09082F10E0011558
:1025E000110509F078C180E190E0A0E0B0E08D83B2
:1025F0009E83AF83B8874D8D5E8DBE01655D7F4F35
:102600008F8D98A10E94582E8BA19CA1009761F0FC
:102610006D8D7E8DEBE2F0E0EC0FFD1F6E0F7F1FE6
:1026200049A15AA10E94582E1DA21EA21FA218A69F
:1026300021962EAD3FAD2197220F331F38AF2FAB20
:1026400024E4289DC001299D900D11248D559B4F98
:10265000AC014C5F5F4F5AAF49AFDC011896BEAF7B
:10266000ADAF2DA13EA14FA158A529AB3AAB4BABC5
:102670005CABE9ADFAAD80819181A281B38128176D
:1026800039074A075B070CF0CFC0ADADBEADED9189
:10269000FC9189A99AA9880F991F880F991FE80FA3
:1026A000F91FA081B1818C91882309F4AFC08330D8
:1026B00009F4ACC00280F381E02D2FA938ADE20F00
:1026C000F31F4081518158AB4FA7452B09F49EC0A1
:1026D00089859A85AB85BC850196A11DB11D898729
:1026E0009A87AB87BC879E01235E3F4FAE01475D53
:1026F0005F4F64E070E0C7010E945F0990E00097BF
:1027000009F0E8C08D819E81AF81B8850496A11D36
:10271000B11D8D839E83AF83B8874D8D5E8DBE01C5
:102720006B5D7F4F8F8D98A10E94582E8BA19CA12D
:10273000009761F06D8D7E8DA5E2B0E0AC0FBD1FFE
:102740006A0F7B1F49A15AA10E94582E1EAA1DAADA
:10275000412C512C3201EFA5F8A980819181A281F1
:10276000B381481659066A067B060CF04FC0EFA5E8
:10277000F8A9248035802DA93EA9220E331ED1014F
:1027800012966D917C9113979E01235E3F4FAE018F
:10279000475D5F4FC7010E945F0990E0009709F015
:1027A00099C0F10182819381092E000CAA0BBB0B09
:1027B0004D815E816F817885840F951FA61FB71F9D
:1027C0008D839E83AF83B887608171814D8D5E8DCF
:1027D0008F8D98A10E94582E8BA19CA1009759F033
:1027E000D1016D917C912D8D3E8D620F731F49A19A
:1027F0005AA10E94582EBFEF4B1A5B0A6B0A7B0A44
:10280000EDA9FEA93496FEABEDABA5CF49A85AA819
:102810006BA87CA8FFEF4F1A5F0A6F0A7F0A4DA2D0
:102820005EA26FA278A61DCF89859A85AB85BC85EF
:10283000892B8A2B8B2B09F44EC08AE190E0A0E013
:10284000B0E089839A83AB83BC8321962EAD3FADE4
:102850002197C901330FAA0BBB0B8D879E87AF87CA
:10286000B88B4D895E89BE016F5F7F4F8F89988DD0
:102870000E94582E8B8D9C8D009761F06D897E890A
:1028800041E050E04C0F5D1F640F751F498D5A8D5C
:102890000E94582E89A59AA5D70117969C938E93CE
:1028A000169711961C921E92CD2889F184E4889D7A
:1028B000F001899DF00D1124EF51FB4F8081918132
:1028C000A281B3810196A11DB11D80839183A28352
:1028D000B3831DC08C01CD28D1F4012BC1F084E459
:1028E000889DF001899DF00D1124ED55FB4F81E08D
:1028F00090E095A784A785E090E0938B828B07C03A
:1029000083E090E0938B828B81E090E09BCDCE5A68
:10291000DF4F0FB6F894DEBF0FBECDBFDF91CF9172
:102920001F910F91FF90EF90DF90CF90BF90AF90ED
:102930009F908F907F906F905F904F903F902F90DF
:102940000895CF92DF92EF92FF920F931F936B0146
:102950007C0184E48C9DF0018D9DF00D1124ED55DA
:10296000FB4F82899389009709F450C00197B9F40D
:1029700082A593A59C012F5F3F4F33A722A7092E65
:10298000000CAA0BBB0B028D138D248D358D801787
:102990009107A207B307D1F5C701B6010CDB84E4A8
:1029A0008C9DF0018D9DF00D1124ED55FB4F82891A
:1029B0009389039759F582A593A59C012F5F3F4FFB
:1029C00033A722A7092E000CAA0BBB0B468D578DEF
:1029D00060A171A184179507A607B707BCF086AD63
:1029E00097AD93A782A784E090E0938B828B82AD12
:1029F00093ADA4ADB5AD181619061A061B0634F42E
:102A0000EE5BFF4F81E090E0918380831F910F91F7
:102A1000FF90EF90DF90CF90089524E4269FF0017F
:102A2000279FF00D1124ED55FB4F82899389049760
:102A3000B1F482A593A5019693A782A7092E000C55
:102A4000AA0BBB0B46895789608D718D841795073A
:102A5000A607B70721F485E090E0938B828B089559
:102A60002F923F924F925F926F927F928F929F929E
:102A7000AF92BF92CF92DF92EF92FF920F931F938C
:102A8000CF93DF93CDB7DEB72C970FB6F894DEBFA8
:102A90000FBECDBF49835A836B837C834901442E8B
:102AA000552E24E4249DF001259DF00D1124ED55B3
:102AB000FB4F228933892450310915861486223030
:102AC000310508F0DAC0DC0111961C921E921396B3
:102AD0001C921E921297A12CB12C60E070E09F0115
:102AE000265F3F4F3E832D837F013CE0E30EF11CC8
:102AF000DF015096B887AF839F01225F3F4F3A872F
:102B00002987681579050CF06CC0ED81FE81A081E4
:102B1000B1819D012A0D3B1D3C872B87D9012D9149
:102B20003C911197232B09F056C018960D911C91DA
:102B3000199712962D903C90139716962D913C91D3
:102B40001797F70140815181DA01E3E0AA0FBB1F1B
:102B5000EA95E1F7EF81F885C080D180FD01EC0DA9
:102B6000FD1D440F551FA985BA85CD90DC904C0DF5
:102B70005D1DDA016D937C93D7014D915C911197A6
:102B80004F5F5F4F4D935C9313830283AB85BC858E
:102B90001B963C932E931A970217130748F4201B99
:102BA000310B31832083158214821782168213C061
:102BB000AB85BC851496CD90DC901597A601420D8F
:102BC000531D401B510B518340832C193D09358304
:102BD0002483D782C6826F5F7F4FBEE0AB0EB11CED
:102BE00090CF24E4249D8001259D100D11240D55C6
:102BF0001B4FF80124853585DC0111963C932E93FB
:102C00004089518913965C934E9312974685578558
:102C100015965C934E931497232BA1F58289938983
:102C2000059781F510922B05828D938DA48DB58D1E
:102C3000AE014F5F5F4F64E070E08F3F9F4FAF4F3B
:102C4000BF4F59F480E290E00E94952269817A8119
:102C50008B819C81A40104DA15C08FE190E00E9471
:102C60009522D8019B961C921E929A9781E090E043
:102C700053969C938E93529705C0FC01118210824B
:102C8000138212822C960FB6F894DEBF0FBECDBF12
:102C9000DF91CF911F910F91FF90EF90DF90CF9038
:102CA000BF90AF909F908F907F906F905F904F906C
:102CB0003F902F900895EF92FF920F931F93CF9321
:102CC000DF937C018B01EA010E941823811121C04E
:102CD0008091720290917302049711F183E090E069
:102CE00090937302809372021BC098819111F0CF70
:102CF00028ED38EB45E050E060E070E0CB010E9449
:102D0000A225AE01B801C7010E94B025C8010E94EA
:102D10007B2580912C0590912D05892B31F3D8CFFF
:102D2000DF91CF911F910F91FF90EF900895CF9376
:102D3000DF9320917202309173022430310541F00B
:102D4000EB010E94B025CE01DF91CF910C947B2541
:102D5000DF91CF9108950C94C2290C94B7290C945B
:102D6000A5290C948B250C944929089560E070E006
:102D700080E090E00C94F3220895AF92BF92CF923E
:102D8000DF92EF92FF920F931F93CF93DF931F92E7
:102D90001F92CDB7DEB75C0169017A018B0180E03B
:102DA00090E0C114D104E104F104F1F0C114D104A4
:102DB00021E0E206F10410F4A60102C04FEF5FEF3C
:102DC0009E012F5F3F4FB801C5010E94652A8F3FCA
:102DD0002FEF920749F029813A81C21AD30AE108FC
:102DE000F108020F131FDDCF0F900F90DF91CF91ED
:102DF0001F910F91FF90EF90DF90CF90BF90AF9019
:102E00000895089508951F920F920FB60F921124FE
:102E10000BB60F922F933F934F935F936F937F93D4
:102E20008F939F93AF93BF93EF93FF93E0917802BB
:102E3000F09179021995FF91EF91BF91AF919F9118
:102E40008F917F916F915F914F913F912F910F9053
:102E50000BBE0F900FBE0F901F9018951F920F92F0
:102E60000FB60F9211240BB60F922F933F934F93EF
:102E70005F936F937F938F939F93AF93BF93EF93E2
:102E8000FF93E0917A02F0917B021995FF91EF9107
:102E9000BF91AF919F918F917F916F915F914F9172
:102EA0003F912F910F900BBE0F900FBE0F901F9070
:102EB00018951F920F920FB60F9211240BB60F9216
:102EC0002F933F934F935F936F937F938F939F9332
:102ED000AF93BF93EF93FF93E0917C02F0917D025B
:102EE0001995FF91EF91BF91AF919F918F917F9134
:102EF0006F915F914F913F912F910F900BBE0F906B
:102F00000FBE0F901F9018951F920F920FB60F9241
:102F100011240BB60F922F933F934F935F936F93B0
:102F20007F938F939F93AF93BF93EF93FF93E09122
:102F30007E02F0917F021995FF91EF91BF91AF91C1
:102F40009F918F917F916F915F914F913F912F91C1
:102F50000F900BBE0F900FBE0F901F9018951F92F1
:102F60000F920FB60F9211240BB60F922F933F932F
:102F70004F935F936F937F938F939F93AF93BF9381
:102F8000EF93FF93E0917402F09175021995FF9110
:102F9000EF91BF91AF919F918F917F916F915F91D1
:102FA0004F913F912F910F900BBE0F900FBE0F903E
:102FB0001F9018951F920F920FB60F9211240BB607
:102FC0000F922F933F934F935F936F937F938F93C2
:102FD0009F93AF93BF93EF93FF93E0917602F091AD
:102FE00077021995FF91EF91BF91AF919F918F91CA
:102FF0007F916F915F914F913F912F910F900BBEF9
:103000000F900FBE0F901F9018951F920F920FB642
:103010000F9211240BB60F922F933F934F935F9310
:103020006F937F938F939F93AF93BF93EF93FF9390
:10303000E0918002F09181021995FF91EF91BF918B
:10304000AF919F918F917F916F915F914F913F9140
:103050002F910F900BBE0F900FBE0F901F901895E1
:103060001F920F920FB60F9211240BB60F922F934F
:103070003F934F935F936F937F938F939F93AF9300
:10308000BF93EF93FF93E0918202F0918302199531
:10309000FF91EF91BF91AF919F918F917F916F9130
:1030A0005F914F913F912F910F900BBE0F900FBEEC
:1030B0000F901F9018951F920F920FB60F92112428
:1030C0002F933F938F939F93AF93BF9380912F053F
:1030D00090913005A0913105B091320530912E05C7
:1030E00023E0230F2D3720F40196A11DB11D05C04B
:1030F00026E8230F0296A11DB11D20932E05809373
:103100002F0590933005A0933105B093320580913F
:10311000330590913405A0913505B091360501969F
:10312000A11DB11D8093330590933405A0933505FF
:10313000B0933605BF91AF919F918F913F912F91A1
:103140000F900FBE0F901F9018952FB7F8946091B5
:103150002F057091300580913105909132052FBF78
:1031600008953FB7F8948091330590913405A0916C
:103170003505B091360526B5A89B05C02F3F19F03F
:103180000196A11DB11D3FBFBA2FA92F982F8827E7
:10319000820F911DA11DB11DBC01CD0142E0660F42
:1031A000771F881F991F4A95D1F708958F929F9294
:1031B000AF92BF92CF92DF92EF92FF926B017C01B0
:1031C000D0DF4B015C01C114D104E104F104F1F042
:1031D00018DEC7DFDC01CB0188199909AA09BB09F0
:1031E000883E9340A105B10570F321E0C21AD108D1
:1031F000E108F10888EE880E83E0981EA11CB11C3E
:10320000C114D104E104F10421F7DDCFFF90EF9068
:10321000DF90CF90BF90AF909F908F90089578945B
:1032200084B5826084BD84B5816084BD85B58260CB
:1032300085BD85B5816085BDEEE6F0E08081816069
:103240008083E1E8F0E01082808182608083808169
:1032500081608083E0E8F0E0808181608083E1EB41
:10326000F0E0808184608083E0EBF0E08081816029
:103270008083E1E9F0E080818260808380818160E9
:103280008083E0E9F0E0808181608083E1EAF0E022
:10329000808182608083808181608083E0EAF0E0C9
:1032A000808181608083E1E2F1E0808182608083BF
:1032B000808181608083E0E2F1E0808181608083B1
:1032C000EAE7F0E08081846080838081826080838F
:1032D0008081816080838081806880831092C100BA
:1032E000089590E0FC013197E231F10508F04EC0FD
:1032F0008827EE58FF4F8F4F0C94F52C809180005B
:103300008F7703C0809180008F7D80938000089527
:1033100080918000877FF9CF84B58F7702C084B514
:103320008F7D84BD08958091B0008F7703C0809118
:10333000B0008F7D8093B0000895809190008F77CA
:1033400007C0809190008F7D03C080919000877F9F
:103350008093900008958091A0008F7707C080919E
:10336000A0008F7D03C08091A000877F8093A00084
:103370000895809120018F7707C0809120018F7D73
:1033800003C080912001877F8093200108951F93BF
:10339000CF93DF93282F30E0F901E85DFE4F849151
:1033A000F901E259FE4FD491F901EC54FE4FC4915A
:1033B000CC23C1F0162F811194DFEC2FF0E0EE0F3B
:1033C000FF1FE650FE4FA591B4918FB7F8941111ED
:1033D00005C09C91ED2FE095E92302C0EC91ED2B07
:1033E000EC938FBFDF91CF911F910895FC01918DD8
:1033F000228D892F90E0805C9F4F821B91098F73F3
:1034000099270895FC01918D828D981731F0828D56
:10341000E80FF11D858D90E008958FEF9FEF0895DF
:10342000FC01918D828D981761F0828DDF01A80FCC
:10343000B11D5D968C91928D9F5F9F73928F90E0EE
:1034400008958FEF9FEF0895FC01848DDF01A80F91
:10345000B11DA35ABF4F2C91848D90E001968F73BC
:103460009927848FA689B7892C93A089B1898C91DB
:1034700080648C93938D848D981306C00288F389A1
:10348000E02D80818F7D80830895CF93DF93EC01C1
:10349000888D8823C1F0EA89FB89808185FD05C07C
:1034A000A889B9898C9186FD0EC00FB607FCF5CFAF
:1034B000808185FFF2CFA889B9898C9185FFEDCFF6
:1034C000CE01C2DFE8CFDF91CF910895EF92FF9256
:1034D0000F931F93CF93DF93EC0181E0888F9B8D37
:1034E0008C8D981305C0E889F989808185FD23C0FA
:1034F000F62E0B8D10E00F5F1F4F0F731127E02E7C
:103500008C8DE8120BC00FB607FCFACFE889F98959
:10351000808185FFF5CFCE0197DFF2CF8B8DFE0145
:10352000E80FF11DE35AFF4FF0820B8FEA89FB8908
:103530008081806207C0EE89FF896083E889F9890C
:1035400080818064808381E090E0DF91CF911F9142
:103550000F91FF90EF900895CF92DF92EF92FF923C
:103560001F93CF93DF93EC016A017B01122FE8894F
:10357000F98982E080834115514E61057105B1F0F2
:1035800060E079E08DE390E0A70196010E94D32CE2
:10359000DA01C9010197A109B109B695A7959795D7
:1035A0008795AC01411580E15807A8F0E889F989B1
:1035B000108260E874E88EE190E0A70196010E9415
:1035C000D32CBA01A90141505109610971097695BD
:1035D000679557954795EC85FD855083EE85FF856A
:1035E0004083188EEC89FD891083EA89FB898081EC
:1035F00080618083EA89FB89808188608083EA8991
:10360000FB89808180688083EA89FB8980818F7D46
:103610008083DF91CF911F91FF90EF90DF90CF904B
:1036200008951F920F920FB60F9211240BB60F92AE
:103630002F938F939F93EF93FF93E0914705F09122
:1036400048058081E0914D05F0914E0582FD12C044
:103650009081809150058F5F8F7320915105821763
:1036600051F0E0915005F0E0E95CFA4F958F8093BE
:10367000500501C08081FF91EF919F918F912F9113
:103680000F900BBE0F900FBE0F901F9018951F92BA
:103690000F920FB60F9211240BB60F922F933F93F8
:1036A0004F935F936F937F938F939F93AF93BF934A
:1036B000EF93FF9387E395E0C7DEFF91EF91BF9112
:1036C000AF919F918F917F916F915F914F913F91BA
:1036D0002F910F900BBE0F900FBE0F901F9018955B
:1036E000E7E3F5E01382128288EE93E0A0E0B0E019
:1036F00084839583A683B78383E593E09183808356
:1037000085EC90E09587848784EC90E097878687A6
:1037100080EC90E0918B808B81EC90E0938B828B9E
:1037200082EC90E0958B848B86EC90E0978B868B77
:10373000118E128E138E148E08951F920F920FB653
:103740000F9211240BB60F922F938F939F93EF93A9
:10375000FF93E091E405F091E5058081E091EA05B1
:10376000F091EB0582FD12C090818091ED058F5F95
:103770008F732091EE05821751F0E091ED05F0E096
:10378000EC52FA4F958F8093ED0501C08081FF9137
:10379000EF919F918F912F910F900BBE0F900FBEC5
:1037A0000F901F9018951F920F920FB60F92112431
:1037B0000BB60F922F933F934F935F936F937F932B
:1037C0008F939F93AF93BF93EF93FF9384ED95E017
:1037D0003BDEFF91EF91BF91AF919F918F917F91D0
:1037E0006F915F914F913F912F910F900BBE0F9072
:1037F0000FBE0F901F901895E4EDF5E01382128232
:1038000088EE93E0A0E0B0E084839583A683B7833D
:1038100083E593E0918380838DEC90E095878487A6
:103820008CEC90E09787868788EC90E0918B808B7A
:1038300089EC90E0938B828B8AEC90E0958B848B63
:103840008EEC90E0978B868B118E128E138E148ED9
:1038500008951F920F920FB60F9211240BB60F927C
:103860002F938F939F93EF93FF93E0918106F091B5
:1038700082068081E0918706F091880682FD12C061
:10388000908180918A068F5F8F7320918B068217BB
:1038900051F0E0918A06F0E0EF58F94F958F809350
:1038A0008A0601C08081FF91EF919F918F912F91A6
:1038B0000F900BBE0F900FBE0F901F9018951F9288
:1038C0000F920FB60F9211240BB60F922F933F93C6
:1038D0004F935F936F937F938F939F93AF93BF9318
:1038E000EF93FF9381E796E0AFDDFF91EF91BF91FA
:1038F000AF919F918F917F916F915F914F913F9188
:103900002F910F900BBE0F900FBE0F901F90189528
:10391000E1E7F6E01382128288EE93E0A0E0B0E0E7
:1039200084839583A683B78383E593E09183808323
:1039300085ED90E09587848784ED90E09787868772
:1039400080ED90E0918B808B81ED90E0938B828B6A
:1039500082ED90E0958B848B86ED90E0978B868B43
:10396000118E128E138E148E08951F920F920FB621
:103970000F9211240BB60F922F938F939F93EF9377
:10398000FF93E0911E07F0911F078081E0912407CB
:10399000F091250782FD12C09081809127078F5FEB
:1039A0008F7320912807821751F0E0912707F0E0EC
:1039B000E25FF84F958F8093270701C08081FF91C8
:1039C000EF919F918F912F910F900BBE0F900FBE93
:1039D0000F901F9018951F920F920FB60F921124FF
:1039E0000BB60F922F933F934F935F936F937F93F9
:1039F0008F939F93AF93BF93EF93FF938EE097E0E6
:103A000023DDFF91EF91BF91AF919F918F917F91B6
:103A10006F915F914F913F912F910F900BBE0F903F
:103A20000FBE0F901F901895EEE0F7E01382128200
:103A300088EE93E0A0E0B0E084839583A683B7830B
:103A400083E593E09183808385E391E09587848784
:103A500084E391E09787868780E391E0918B808B68
:103A600081E391E0938B828B82E391E0958B848B51
:103A700086E391E0978B868B118E128E138E148EB7
:103A800008958F929F92AF92BF92CF92DF92EF9262
:103A9000FF920F931F93CF93DF937C018B016C01F7
:103AA00082E0C80ED11C4701E5E08E0E911CC0E0FB
:103AB000D0E0F60161916F014AE050E0C801C6D044
:103AC0005C016EE2C80167D08A0D9B1DC80FD91F2B
:103AD000C814D90471F74AE050E0F7016581C801C4
:103AE000B5D08C0F9D1FDF91CF911F910F91FF904B
:103AF000EF90DF90CF90BF90AF909F908F90089500
:103B0000EBEAF7E083E693E09183808312821382ED
:103B1000148215820895CF92DF92EF92FF920F9355
:103B20001F93CF93DF936C017A018B01C0E0D0E04B
:103B3000CE15DF0589F0D8016D918D01D601ED918B
:103B4000FC910190F081E02DC6011995892B11F4AB
:103B50007E0102C02196ECCFC701DF91CF911F916A
:103B60000F91FF90EF90DF90CF9008956115710550
:103B700079F0FB0101900020E9F73197AF01461B76
:103B8000570BDC01ED91FC910280F381E02D19943B
:103B900080E090E00895DC01ED91FC910190F081CE
:103BA000E02D19944F925F926F927F92EF92FF9265
:103BB0000F931F93CF93DF93CDB7DEB7A1970FB6C7
:103BC000F894DEBF0FBECDBF7C01FA01CB0119A274
:103BD000223008F42AE08E010F5D1F4F422E512C37
:103BE000612C712CBF01A30192010E94D32CF90119
:103BF000CA01015011096A3014F4605D01C0695CAA
:103C0000D8016C93232B242B252B61F7B801C70116
:103C1000ADDFA1960FB6F894DEBF0FBECDBFDF912A
:103C2000CF911F910F91FF90EF907F906F905F90D9
:103C30004F9008952115310541F4DC01ED91FC917F
:103C40000190F081E02D642F1994ACCF9A01462F9A
:103C500050E060E070E0EECF8230A9F028F48823D5
:103C600049F0813051F00895843021F1E8F0853039
:103C700039F1089510926E00089580916F008D7F44
:103C800080936F000895809170008D7F8093700005
:103C900081E08093B0008091B100887F8460809340
:103CA000B1001092B3000895809171008D7F8093D0
:103CB00071000895809172008D7F80937200089545
:103CC000809173008D7F809373000895CF93C82FE8
:103CD000809184028C1307C0E4E1F2E0E4918FEF5D
:103CE0008093840201C0EFEF8E2FB6DF60E08C2F4F
:103CF000CF914DCB1F920F920FB60F9211240BB69E
:103D00000F922F933F934F935F936F937F938F9374
:103D10009F93AF93BF93EF93FF938091B4079091DC
:103D2000B507A091B607B091B707892B8A2B8B2BCB
:103D300051F18091B107E091B207F091B307908102
:103D4000892780838091B4079091B507A091B60729
:103D5000B091B707181619061A061B06BCF4809115
:103D6000B4079091B507A091B607B091B707019736
:103D7000A109B1098093B4079093B507A093B60742
:103D8000B093B70703C080918402A0DFFF91EF9149
:103D9000BF91AF919F918F917F916F915F914F9163
:103DA0003F912F910F900BBE0F900FBE0F901F9061
:103DB000189540E855E260E070E080E090E000C0D7
:103DC0008130910571F01CF4892B39F0089582300F
:103DD000910559F0039769F0089526E087E395E08F
:103DE0000BC026E084ED95E007C026E081E796E071
:103DF00003C026E08EE097E0AFCB1F920F920FB684
:103E00000F9211240BB60F922F933F934F935F9312
:103E10006F937F938F939F93AF93BF93EF93FF9392
:103E20008EEE95E890932501809324010E949F2AAD
:103E3000FF91EF91BF91AF919F918F917F916F9182
:103E40005F914F913F912F910F900BBE0F900FBE3E
:103E50000F901F9018958EEE95E890932501809312
:103E60002401A3E7B0E08C918E7F8C93E0E2F1E037
:103E700080818C7F8083E1E2F1E08081877E808396
:103E800080818560808380818D7F80838C9181603B
:103E90008C93089581E008956F927F928F929F9204
:103EA000AF92BF92CF92DF92EF92FF920F931F9348
:103EB000CF93DF935C017B014A0101E010E00E1516
:103EC0001F0564F568018FEFC81AD80AE801CC0F06
:103ED000DD1FC80DD91D6880798061147104E1F07F
:103EE00065E673E0C3010E94682E892B19F41982DC
:103EF000188212C068E673E0C3010E94682E892B05
:103F000059F4CE14DF0441F06801E2E0CE0ED11C7A
:103F1000198218821B821A828601D1CF81E0F501B5
:103F20008083B401C7010E94ED29F501928381834A
:103F300080E090E0DF91CF911F910F91FF90EF9083
:103F4000DF90CF90BF90AF909F908F907F906F90B9
:103F5000089588EB97E0089580E008950F931F93EC
:103F6000CF93DF938B01BA01E9011982188298017E
:103F7000012E000C440B550BFC01818192810E94A3
:103F8000BD16019621F01983088380E001C081E00D
:103F9000DF91CF911F910F9108950F931F93CF93AE
:103FA000DF931F921F92CDB7DEB7FB018A01B901E3
:103FB0009E012F5F3F4FAF01FC01818192810E94E2
:103FC000062A019639F089819A81F80191838083CC
:103FD00080E001C081E00F900F90DF91CF911F91A1
:103FE0000F910895FC01808108950895089581E05E
:103FF000FB01808380E0089508951092E207089500
:10400000FC01818192810C94E429CF93DF93CDB799
:10401000DEB72A970FB6F894DEBF0FBECDBFAC0156
:10402000CB0160E070E049835A836B837C83092E67
:10403000000CAA0BBB0B8D839E83AF83B8879E01B8
:10404000275F3F4FAE014F5F5F4F68E070E08091A8
:10405000D1079091D20782DF811108C081E02985C4
:104060003A852830310519F480E001C081E02A96B4
:104070000FB6F894DEBF0FBECDBFDF91CF9108958C
:104080000F931F93CF93DF931F921F92CDB7DEB78D
:104090008B019E012F5F3F4FAC018091D107909122
:1040A000D2075CDF811108C081E029813A812017A5
:1040B000310719F480E001C081E00F900F90DF918B
:1040C000CF911F910F910895CF93DF93EC01109240
:1040D000D5071092D4071092E1071092E007AC01C7
:1040E00060E070E0CB010E943010AE0161E070E052
:1040F00080E090E00E9430108091D1079091D2072B
:10410000DF91CF9179CF4F925F926F927F928F9292
:104110009F92AF92BF92CF92DF92EF92FF920F9356
:104120001F93CF93DF931F921F92CDB7DEB79C01F1
:104130006C0197FF03C087E0C80ED11C43E0D59403
:10414000C7944A95E1F7C90168E070E00E94C02C6D
:104150007C0189010E5F1F4F8091CF079091D0079E
:10416000801791070CF0DCC08091CD079091CE07AD
:10417000009731F00E94C02D1092D0071092CF0707
:10418000C8010E942B2D9093CE078093CD07892BD9
:1041900029F01093D0070093CF07C2C0A12CB12CF7
:1041A000AC14BD040CF05EC0412C512C320100E077
:1041B00010E098012A52384FAE014F5F5F4F61E027
:1041C00070E08091D1079091D207E7DE811198C10C
:1041D00089819A812FEF421A520A620A720A20E9F3
:1041E00042162FE5520621E0620671043CF0609110
:1041F000E0077091E1078DEE90E02DC0080F191FC8
:104200000A30110551F549E050E060E070E086EDBC
:1042100097E00E94912A6091E0077091E10788235E
:10422000C1F08091DE0790E06817790709F0B8CFF8
:104230008EEE90E0EADE8091E0079091E107019632
:1042400099279093E1078093E0078FEFA81AB80AA7
:10425000A7CF8FEE90E0D9DEA7CF0A3011050CF47E
:10426000A8CF9ECFEF2809F44BC1C12CD12C7601E9
:1042700000E010E098012A52384FAE014F5F5F4FC7
:1042800061E070E08091D1079091D20786DE8111C4
:1042900037C189819A812FEFC21AD20AE20AF20A43
:1042A00020E9C2162FE5D20621E0E206F1043CF037
:1042B0006091E0077091E1078DEE90E02AC0080F51
:1042C000191F0A30110539F549E050E060E070E04F
:1042D00086ED97E00E94912A6091E0077091E107D6
:1042E0008823A9F08091DE0790E06817790709F02C
:1042F00007C18EEE90E089DE8091E0079091E107A2
:10430000019699279093E1078093E007F9C08FEE1B
:1043100090E07BDEAACF0A3011050CF4ABCFF0C0E1
:1043200000E010E00C151D050CF077C0412C512C5D
:104330003201A12CB12C480193E0880C991C9A956C
:10434000E1F72091CD073091CE07C4018A0D9B1D66
:10435000280F391FAE014F5F5F4F61E070E0809121
:10436000D1079091D20719DE8111CAC089819A8143
:104370002FEF421A520A620A720A20E942162FE50A
:10438000520621E0620671043CF06091E0077091F2
:10439000E1078DEE90E034C0A80EB91E8AE0A816A1
:1043A000B104A9F549E050E0B4018091CD079091A6
:1043B000CE070E94912A6091E0077091E10788235F
:1043C000E9F08091CD079091CE07FC01E80DF91D31
:1043D000808590E06817790709F0A4CF8EEE90E011
:1043E00014DE8091E0079091E10701969927909360
:1043F000E1078093E0070F5F1F4F94CF8FEE90E0AF
:1044000004DE412C512C3201A12CB12C9ACF2AE090
:10441000A216B1040CF495CF85CFE114F10409F490
:104420006AC0680183E0CC0CDD1C8A95E1F7812C21
:10443000912C540100E010E098012A52384FAE014F
:104440004F5F5F4F61E070E08091D1079091D2079C
:10445000A4DD811155C089819A812FEF821A920AB9
:10446000A20AB20A20E982162FE5920621E0A206EE
:10447000B1043CF06091E0077091E1078DEE90E0AF
:1044800034C0080F191F0A30110589F549E050E0C2
:1044900060E070E086ED97E00E94912A6091E0076D
:1044A0007091E1078823F9F08091DE0790E06817AA
:1044B000790709F58EEE90E0A8DD8091CD07909107
:1044C000CE07A70166ED77E08C0D9D1D0E94582E4A
:1044D0008091E0079091E107019699279093E10779
:1044E0008093E00708C08FEE90E08FDDA0CF0A3008
:1044F00011050CF4A1CF8091CD079091CE0702C099
:1045000080E090E00F900F90DF91CF911F910F917D
:10451000FF90EF90DF90CF90BF90AF909F908F90E3
:104520007F906F905F904F900895CF92DF92EF92BF
:10453000FF920F931F93CF93DF931F92CDB7DEB7F8
:104540006C017B018A01452B31F0AB0160E070E02A
:10455000C801E3D78983B701C60157DD81110DC0BA
:104560000115110551F0B701C8018ADD811105C09F
:1045700061E070E0CE01019683DD0F90DF91CF9175
:104580001F910F91FF90EF90DF90CF900895CF9201
:10459000DF92EF92FF92CF93DF93CDB7DEB72897EC
:1045A0000FB6F894DEBF0FBECDBF6B01E12CF12C2E
:1045B000C982DA82EB82FC822D833E834F83588747
:1045C000AE014F5F5F4F68E070E0AFDF28960FB637
:1045D000F894DEBF0FBECDBFDF91CF91FF90EF907B
:1045E000DF90CF9008950F931F93CF93DF93EC014B
:1045F0008B01AFDC9093D2078093D107009739F0FD
:10460000A801BE0149DCEC01892B19F40BC0C4E7F9
:10461000D3E08091D1079091D207E7DC1092D207C6
:104620001092D107CE01DF91CF911F910F91089584
:104630008091D1079091D207D5CC2F923F924F9283
:104640005F926F927F928F929F92AF92BF92CF9222
:10465000DF92EF92FF920F931F93CF93DF93CDB72B
:10466000DEB769970FB6F894DEBF0FBECDBF2091BD
:10467000D507222309F426C25D8B4C8B688B798B7E
:104680008A8B9B8B9A01AB01BC01CE0101960E94E3
:10469000301510E038E0232E312C89819A811816CC
:1046A00019060CF00AC21F861E861D861C8689818B
:1046B0009A81AC85BD85A817B9070CF0F3C1EB81D1
:1046C000FC812E853F85E20FF31F208131813093DD
:1046D000CC072093CB07848195819093CA07809360
:1046E000C907428153815093C8074093C707468149
:1046F00057815093C6074093C507820F931F9C01B3
:10470000990F440B550B2E8B3F8B488F598FC12C23
:10471000D12C76012E893F89488D598DC216D3063A
:10472000E406F50608F0A2C11F826091CB077091E4
:10473000CC078B01072E000C220B330BD701C601CF
:104740000496A11DB11D80179107A207B30728F495
:10475000E091C707F091C8070AC0E4E0F0E0E61B6B
:10476000F70BEC0DFD1D8091C5079091C607E80F72
:10477000F91F4080512C612C712CD701C601059680
:10478000A11DB11D80179107A207B30728F4E0917E
:10479000C707F091C8070AC0E5E0F0E0E61BF70B99
:1047A000EC0DFD1D8091C5079091C607E80FF91F1C
:1047B0008081582AD701C6010696A11DB11D801718
:1047C0009107A207B30728F4E091C707F091C80743
:1047D0000AC0E6E0F0E0E61BF70BEC0DFD1D809152
:1047E000C5079091C607E80FF91F8081682AD70195
:1047F000C6010796A11DB11D80179107A207B30737
:1048000028F4E091C707F091C8070AC0E7E0F0E09C
:10481000E61BF70BEC0DFD1D8091C5079091C607B7
:10482000E80FF91F8081782A4601570148E0840E7D
:10483000911CA11CB11C081519052A053B0508F49B
:10484000B4C0C016D106E206F30638F48091C7075B
:104850009091C8078C0D9D1D09C0C601861B970B42
:104860002091C5073091C607820F931F68E070E062
:1048700007DCE091CB07F091CC079F010F2E000CD5
:10488000440B550BD301C201880D991DAA1DBB1DF8
:10489000281739074A075B07C8F082169306A40653
:1048A000B50638F42091C7073091C807C6010896AD
:1048B00009C0C1018E1B9F0B8C0D9D1D2091C5074A
:1048C0003091C607820F931FB20199C08601BF01C4
:1048D000685071096C197D0982169306A406B50605
:1048E00038F42091C7073091C807C601089609C05F
:1048F000C1018E1B9F0B8C0D9D1D2091C507309112
:10490000C607820F931FBCDB8091CB079091CC0729
:10491000B101681B790B600F711F640D751D8091CB
:10492000C5079091C607ACDB8091CB079091CC076F
:10493000AC0148505109FA01E01BF10BAC01092E02
:10494000000C660B770B84169506A606B70638F49E
:104950002091C7073091C807C60108960AC0910187
:10496000281B390BC9018C0D9D1D2091C507309165
:10497000C607820F931FAF0160E070E0CED58F8332
:104980002091CB073091CC07A101421B530B9A0118
:10499000200F311F240D351D40E050E0682F80911D
:1049A000C5079091C607A5D550C0C016D106E2062E
:1049B000F306C8F46C197D098091C7079091C80768
:1049C0008C0D9D1D5DDB8091CB079091CC07B101D3
:1049D000681B790B6C0D7D1D640D751D8091C507DD
:1049E0009091C6070CC0C601861B970B2091C50786
:1049F0003091C607B201685F7F4F820F931F40DB83
:104A00008091CB079091CC07AC01092E000C660B6E
:104A1000770B84169506A606B70638F42091C707CB
:104A20003091C807C60108960AC0D101A81BB90B6E
:104A3000CD018C0D9D1D2091C5073091C607820FB9
:104A4000931FA20160E070E068D58F8361E070E0A1
:104A5000CE01079615DB182FB8E04B0E511C611CD8
:104A6000711CC40CD51CE61CF71C54CE8C859D858E
:104A7000880F991FED81FE81E80FF91F4889598938
:104A80006A897B89808191810E9462104C855D8555
:104A90004F5F5F4F5D874C878E859F8508969F8708
:104AA0008E8705CE2C893D89488959896A897B89F9
:104AB000CE0101960E943015F0CD112319F08C899A
:104AC0009D8902DB69960FB6F894DEBF0FBECDBF9D
:104AD000DF91CF911F910F91FF90EF90DF90CF90DA
:104AE000BF90AF909F908F907F906F905F904F900E
:104AF0003F902F900895CF93DF93EC01AC0160E0DD
:104B000070E0CB019ADDAE0161E070E080E090E002
:104B1000DF91CF9192CDCF938091D1079091D20721
:104B20001BDAC82F81110BC060E070E0CB010E943E
:104B3000380B61E070E080E090E00E94380B8C2F31
:104B4000CF9108950F931F9389019A01AB01BC0186
:104B50008091D1079091D20749DA1F910F91089562
:104B60003F924F925F926F927F928F929F92AF92FD
:104B7000BF92CF92DF92EF92FF920F931F93CF934A
:104B8000DF93CDB7DEB767970FB6F894DEBF0FBEE1
:104B9000CDBF6C017B015A018091D507882331F08C
:104BA0008091D507882309F45CC30AC065ED77E0DE
:104BB0008091D1079091D2071ADA811152C3F0CFB8
:104BC0008091D4071A821982882309F46AC0E0E927
:104BD0004E2EEFE55E2E66246394712C00E010E00B
:104BE00098012554384FAE014F5F5F4F61E070E090
:104BF0008091D1079091D207D0D9982E81114DC0C4
:104C000089819A81080F191F0115110509F445C002
:104C100081E0481A51086108710839F46091E00791
:104C20007091E1078DEE90E030C00A30110589F5F2
:104C300049E050E060E070E08BEB97E072D4609167
:104C4000E0077091E1078823F1F08091C30790E0BD
:104C500068177907D9F48EEE90E0D7D988E0EBEBAE
:104C6000F7E0DE01199601900D928A95E1F7209107
:104C7000E0073091E1072F5F3F4F33273093E10783
:104C80002093E0070AC08FEE90E0BFD91A82198204
:104C900004C00A3011050CF4A3CF81E029813A81C8
:104CA00024C000E010E078E0672E712C29E030E0AD
:104CB0002C0F3D1F200F311FAE014F5F5F4FB3011F
:104CC000601B710B8091D1079091D20766D9982E05
:104CD00029813A81811108C0020F131F01151105A6
:104CE00019F00830110514F381E0121613060CF0C8
:104CF00080E09110B3C2882309F4B3C28091D40735
:104D0000811104C019861A861B861C8689859A859E
:104D1000AB85BC858031910508F0A3C2FC018827D2
:104D2000EC57FF4F8F4F61C6D6011696ED91FC915F
:104D3000179780819181A281B38189839A83AB8304
:104D4000BC83AE014F5F5F4F64E070E085E190E0AF
:104D50007DC18D859E85D7D9009731F42FEF3FEF28
:104D6000A90161E070E00EC0FC0180809180A2800A
:104D7000B380A701C501B4010E94DB0FA501940116
:104D800060E070E08DE190E067C28D859E85BBD9C3
:104D9000009721F42FEF3FEFA90110C0DC018D90A7
:104DA0009D90AD90BD90AD0195018401B701C60104
:104DB0000E947D0CA5019401882319F061E070E048
:104DC00002C060E070E08BE190E046C28D859E8578
:104DD0009AD9009721F42FEF3FEFA9010FC0FC01F2
:104DE00081909190A190B190BF01A5019401C6015D
:104DF0000E94800EA5019401882319F061E070E003
:104E000002C060E070E08CE190E026C2D60114960A
:104E1000ED91FC91159700811181F80182809380BA
:104E2000A080B18060E1462E512C612C712C49820A
:104E30005A826B827C8288E090E0A0E0B0E08D83B3
:104E40009E83AF83B8879E012F5E3F4FAE014F5FB9
:104E50005F4F68E070E08091D1079091D2077ED8D3
:104E6000882319F000E010E0BAC089899A89089770
:104E7000C9F7D801ED90FC90B8E0EB0EF11CEE0CF8
:104E8000FF1CEE0CFF1CC701E6D58C01892B51F3EA
:104E900049825A826B827C82C7010F2C000CAA0BBC
:104EA000BB0B8D839E83AF83B8879E012F5E3F4FE0
:104EB000AE014F5F5F4F68E070E08091D107909145
:104EC000D2074CD881118BC089899A89089709F03B
:104ED00086C0D6011296ED91FC91139740815181C5
:104EE00062817381D8014D935D936D937C93139789
:104EF000448155816681778114964D935D936D93BE
:104F00007C931797408551856285738518964D93DC
:104F10005D936D937C931B9784859585A685B78556
:104F2000F80184879587A687B787108A118A128A25
:104F3000138A84E090E0A0E0B0E0848B958BA68B90
:104F4000B78B8091720290917302A0E0B0E0808FE5
:104F5000918FA28FB38FC5010B2C000CAA0BBB0B3A
:104F6000848F958FA68FB78FF401D801909680E03B
:104F700090E08A159B0554F44191519160E070E0F6
:104F80004D935D936D937D930196F3CF9E012F5EBC
:104F90003F4FA801B7018091D1079091D2070E949D
:104FA000AE1F81111CC089899A898E159F05B9F49D
:104FB000A70160E070E0C801B0D28B8B9E012F5E2C
:104FC0003F4FAE014D5E5F4F61E070E08091D107D1
:104FD0009091D2070E94AE1F81E08093D407C80150
:104FE00067960FB6F894DEBF0FBECDBFDF91CF91AD
:104FF0001F910F91FF90EF90DF90CF90BF90AF90F7
:105000009F908F907F906F905F904F903F90B8C52A
:105010008D859E85AF85B8890097A105B10521F4DE
:1050200081E08093D3071DC16ED8009789F481E099
:1050300090E0A0E0B0E089839A83AB83BC83AE01AB
:105040004F5F5F4F64E070E082E190E06EDA09C18B
:10505000BC01C6010E948B0A19821A821B821C8223
:10506000AE014F5F5F4F64E070E082E190E05DDA97
:105070008111F7C0D5CFD6011496ED91FC9115970B
:105080000190F081E02D008511858FEF8983011556
:10509000110509F472C0D8016D907C90A280B38094
:1050A00020E030E060E070E080E090E08615970559
:1050B0000CF5F801A281B381A20FB31F1296ED91F6
:1050C000FC911397EE0FFF1FEA0DFB1D0190F0817D
:1050D000E02D16960D90BC91A02DEA9FA001EB9FAC
:1050E000500DFA9F500D1124640F751F0196285F13
:1050F0003F4FDCCF83E190E00E9405208111B1C0D9
:10510000C12CD12CE12CF12CE614F7047CF5D8014C
:105110001296ED91FC911397EC0DFD1D808091800E
:10512000A281B381AA0FBB1FAA0DBB1D2D913C917B
:1051300086819781289F2001299F500C389F500C11
:105140001124B201C4010E944020382E920140E097
:1051500050E06981C401CDD18983B8E0CB0ED11C68
:1051600031107FC0EFEFEE1AFE0ACECF61E070E0A3
:10517000CE0101960E94402074C060E070E083E19F
:1051800090E00E9405206DC040E050E060E070E0DB
:1051900081E190E0CAD9811164C0812C912C540125
:1051A000C501B4010E94640C80912B05882321F075
:1051B000A701C501B40141DAA701C501B4010E94EC
:1051C000640B8A9489288A288B2829F0812C912CB9
:1051D00054018394E5CF1092D5071092D407109212
:1051E000E1071092E0078091D1079091D2070E94C9
:1051F000FD1F37C081E090E090932D0580932C0532
:1052000040E050E060E070E086E190E01FCF81E098
:10521000D5018C9326C08D859E850E9483200097A2
:1052200031F42FEF3FEFA90161E070E013C0FC0102
:105230002081318142815381CA01B9012C8B3D8B80
:105240004E8B5F8B0E943B102C893D894E895F8974
:1052500060E070E08EE190E09AD903C0C7010E943F
:10526000642067960FB6F894DEBF0FBECDBFDF9106
:10527000CF911F910F91FF90EF90DF90CF90BF9053
:10528000AF909F908F907F906F905F904F903F90E6
:105290000895CF92DF92EF92FF92CF93DF93EC01CC
:1052A000C12CD12C7601C701B6010E94640CAE015D
:1052B000C701B601C2D9AE01C701B6010E94640B95
:1052C0008091CD079091CE07009729F059D4109284
:1052D000CE071092CD07CA94CD28CE28CF2829F02A
:1052E000C12CD12C7601C394DECF8091D4078823C2
:1052F00059F040E050E060E070E084E190E015D9C2
:10530000F82E1092D40701C0F12C8091D507882384
:1053100041F01092D50781E090E090937302809362
:1053200072028091D1079091D2070E940020809153
:10533000D1079091D2070E94F51F8F2DDF91CF9159
:10534000FF90EF90DF90CF900895CF93DF93EC0123
:10535000AC0160E070E0CB010E94A114AE0161E0FD
:1053600070E080E090E0DF91CF910C94A11460E0B8
:1053700070E0CB010E940D1561E070E080E090E0EC
:105380000C940D15CF92DF92EF92FF920F931F9323
:10539000CF93DF93EC016A017B0100E010E09801FC
:1053A0000E948B1001E010E020E030E0B701A60180
:1053B000CE010E948B10DF91CF911F910F91FF9032
:1053C000EF90DF90CF90089568EE73E080E090E07A
:1053D0000E94D61880E090E008950E940F1926E000
:1053E00040E050E16EE070E087E395E00E94AC1A87
:1053F00087E395E00E94F619892B29F087E395E071
:105400000E94101AF5CF80E090E00895AF92BF920D
:10541000CF92DF92EF92FF920F931F93CF93DF9380
:105420001F921F92CDB7DEB77A018901F90111826F
:10543000108287E395E069837A830E94F619698177
:105440007A81892B99F15B01DD24D39485E6C82EFE
:105450008091E207811124C087E395E00E94101A31
:1054600085369105A9F7D092E207F501C1925F0157
:10547000F80180819181019691838083E9CF87E350
:1054800095E00E94101A8F3FFFEF9F0749F0F5014A
:1054900081935F01F80180819181019691838083DE
:1054A000F801808191818E159F0548F380E090E09E
:1054B0000F900F90DF91CF911F910F91FF90EF9080
:1054C000DF90CF90BF90AF9008950F931F93CF932D
:1054D000DF93EA01890187E395E00E948B1DF801C3
:1054E000D183C08380E090E0DF91CF911F910F9135
:1054F0000895DC01A40FB51F240F351FAD01481B13
:10550000590B4217530738F4ED91E627F0E0EB5EB4
:10551000FD4F6491F3CF862F08959A01AB016FEF91
:10552000E8CFCF93FC01E60FF71FE40FF51FC08112
:10553000F4DF91E0C81390E0892FCF910895809116
:10554000E30791E0980F9093E307882349F021E067
:1055500030E03093E5072093E4078093E307089554
:1055600078940E94C707F8948091E3078150809354
:10557000E3070C94AD16FF920F931F93CF93DF9325
:105580001F921F92CDB7DEB7FF24F394FA820E94D8
:105590000F190E94D91E00914D0310914E03F8017E
:1055A0001182108260E070E080E090E00E94B61608
:1055B0000E9482087894C80180960E94B51681E006
:1055C00090E00E94B1161982AE014F5F5F4F61E01B
:1055D00070E0F801828193810E945B1689818823A3
:1055E00011F0F801F4A20E94BC16F8940E942B1F3F
:1055F000F80180819181892B19F481E094A19111A6
:1056000080E08A8378947894FF24F3948A818823B5
:1056100021F11982AE014F5F5F4F61E070E0F80148
:10562000828193810E9497168981882311F0F80165
:10563000F4A2F80180819181892B19F481E094A171
:10564000911180E08A838A81882319F00E944A1F81
:1056500002C080E090E08A83D9CF81E090E00E9490
:10566000B3160E942E09F89480E090E00F900F90FE
:10567000DF91CF911F910F91FF9008955058BB2754
:10568000AA270ED0DCC0CDD030F0D2D020F031F43B
:105690009F3F11F41EF4C2C00EF4E095E7FBB8C0C2
:1056A000E92FDED080F3BA176207730784079507E6
:1056B00018F071F49EF5F6C00EF4E0950B2EBA2F9B
:1056C000A02D0B01B90190010C01CA01A001112408
:1056D000FF27591B99F0593F50F4503E68F11A16B4
:1056E000F040A22F232F342F4427585FF3CF469545
:1056F00037952795A795F0405395C9F77EF41F1667
:10570000BA0B620B730B840BBAF09150A1F0FF0F30
:10571000BB1F661F771F881FC2F70EC0BA0F621F1C
:10572000731F841F48F4879577956795B795F7950C
:105730009E3F08F0B3CF9395880F08F09927EE0F9E
:1057400097958795089540D008F481E00895E894EE
:1057500009C097FB3EF490958095709561957F4FB9
:105760008F4F9F4F9923A9F0F92F96E9BB27939567
:10577000F695879577956795B795F111F8CFFAF477
:10578000BB0F11F460FF1BC06F5F7F4F8F4F9F4FA8
:1057900016C0882311F096E911C0772321F09EE806
:1057A000872F762F05C0662371F096E8862F70E06C
:1057B00060E02AF09A95660F771F881FDAF7880F46
:1057C0009695879597F90895990F0008550FAA0B9C
:1057D000E0E8FEEF16161706E807F907C0F0121604
:1057E0001306E407F50798F0621B730B840B950B07
:1057F00039F40A2661F0232B242B252B21F408955C
:105800000A2609F4A140A6958FEF811D811D0895F8
:1058100097F99F6780E870E060E008959FEF80EC63
:10582000089500240A941616170618060906089506
:1058300000240A9412161306140605060895092E6C
:105840000394000C11F4882352F0BB0F40F4BF2BDB
:1058500011F460FF04C06F5F7F4F8F4F9F4F08951B
:1058600057FD9058440F551F59F05F3F71F0479511
:10587000880F97FB991F61F09F3F79F087950895F6
:10588000121613061406551FF2CF4695F1DF08C015
:10589000161617061806991FF1CF86957105610532
:1058A00008940895E894BB2766277727CB0197F9DA
:1058B00008958ADF08F48FEF08950BD0C0CFB1DFD1
:1058C00028F0B6DF18F0952309F0A2CFA7CF112456
:1058D000EACFC6DFA0F3959FD1F3950F50E0551F97
:1058E000629FF001729FBB27F00DB11D639FAA2735
:1058F000F00DB11DAA1F649F6627B00DA11D661F84
:10590000829F2227B00DA11D621F739FB00DA11DA4
:10591000621F839FA00D611D221F749F3327A00D5E
:10592000611D231F849F600D211D822F762F6A2FFA
:1059300011249F5750408AF0E1F088234AF0EE0F7F
:10594000FF1FBB1F661F771F881F91505040A9F78C
:105950009E3F510570F05CCFA6CF5F3FECF3983EC1
:10596000DCF3869577956795B795F795E7959F5FF3
:10597000C1F7FE2B880F911D9695879597F908958D
:1059800097FB072E16F4009406D077FD08D035D08B
:1059900007FC05D03EF4909581959F4F0895709532
:1059A00061957F4F0895A1E21A2EAA1BBB1BFD0132
:1059B0000DC0AA1FBB1FEE1FFF1FA217B307E407EE
:1059C000F50720F0A21BB30BE40BF50B661F771F46
:1059D000881F991F1A9469F7609570958095909526
:1059E0009B01AC01BD01CF010895EE0FFF1F881F81
:1059F0008BBF0790F691E02D1994AA1BBB1B51E1B8
:105A000007C0AA1FBB1FA617B70710F0A61BB70B2E
:105A1000881F991F5A95A9F780959095BC01CD01D3
:105A200008950F931F93CF93DF93869F8001879FE5
:105A3000100D969F100D1124C8010DD0EC01009798
:105A400021F0A80160E070E03CD1CE01DF91CF9160
:105A50001F910F910895CF93DF938230910510F439
:105A600082E090E0E0913108F091320820E030E0EF
:105A7000C0E0D0E0309711F14081518148175907BB
:105A8000C0F04817590761F482819381209719F07B
:105A90009B838A832BC0909332088093310826C061
:105AA0002115310519F04217530718F49A01BE0168
:105AB000DF01EF010280F381E02DDCCF21153105FC
:105AC00009F1281B390B2430310590F412968D9181
:105AD0009C9113976115710521F0FB0193838283DB
